{
  "abi": [
    {
      "inputs": [],
      "name": "Aer__lock_notLive",
      "type": "function"
    },
    {
      "inputs": [],
      "name": "Aer__setParam_unrecognizedParam",
      "type": "function"
    },
    {
      "inputs": [],
      "name": "Aer__settleAuctionedDebt_insufficientSurplus",
      "type": "function"
    },
    {
      "inputs": [],
      "name": "Aer__settleAuctionedDebt_notEnoughDebtOnAuction",
      "type": "function"
    },
    {
      "inputs": [],
      "name": "Aer__settleDebtWithSurplus_insufficientDebt",
      "type": "function"
    },
    {
      "inputs": [],
      "name": "Aer__settleDebtWithSurplus_insufficientSurplus",
      "type": "function"
    },
    {
      "inputs": [],
      "name": "Aer__startDebtAuction_insufficientDebt",
      "type": "function"
    },
    {
      "inputs": [],
      "name": "Aer__startDebtAuction_surplusNotZero",
      "type": "function"
    },
    {
      "inputs": [],
      "name": "Aer__startSurplusAuction_debtNotZero",
      "type": "function"
    },
    {
      "inputs": [],
      "name": "Aer__startSurplusAuction_insufficientSurplus",
      "type": "function"
    },
    {
      "inputs": [],
      "name": "Aer__transferCredit_insufficientCredit",
      "type": "function"
    },
    {
      "inputs": [],
      "name": "Aer__unqueueDebt_auctionDelayNotPassed",
      "type": "function"
    },
    {
      "inputs": [
        {
          "internalType": "uint256",
          "name": "",
          "type": "uint256"
        },
        {
          "internalType": "uint256",
          "name": "",
          "type": "uint256"
        }
      ],
      "name": "TEST_arguments",
      "type": "function"
    },
    {
      "anonymous": false,
      "inputs": [
        {
          "indexed": false,
          "internalType": "bytes",
          "name": "data",
          "type": "bytes"
        }
      ],
      "name": "Bytes",
      "type": "event"
    },
    {
      "anonymous": false,
      "inputs": [
        {
          "indexed": false,
          "internalType": "bytes4",
          "name": "sig",
          "type": "bytes4"
        }
      ],
      "name": "MsgSig",
      "type": "event"
    },
    {
      "inputs": [],
      "name": "anotherWeirdName",
      "outputs": [],
      "stateMutability": "nonpayable",
      "type": "function"
    },
    {
      "inputs": [],
      "name": "emitError1",
      "outputs": [],
      "stateMutability": "nonpayable",
      "type": "function"
    },
    {
      "inputs": [],
      "name": "emitError2",
      "outputs": [],
      "stateMutability": "nonpayable",
      "type": "function"
    },
    {
      "inputs": [],
      "name": "emitRequire1",
      "outputs": [],
      "stateMutability": "nonpayable",
      "type": "function"
    },
    {
      "inputs": [],
      "name": "showError1",
      "outputs": [],
      "stateMutability": "nonpayable",
      "type": "function"
    },
    {
      "inputs": [],
      "name": "showError2",
      "outputs": [],
      "stateMutability": "nonpayable",
      "type": "function"
    },
    {
      "inputs": [],
      "name": "showError3",
      "outputs": [],
      "stateMutability": "nonpayable",
      "type": "function"
    },
    {
      "inputs": [],
      "name": "weirdName",
      "outputs": [],
      "stateMutability": "nonpayable",
      "type": "function"
    }
  ],
  "bytecode": {
    "object": "0x608060405234801561001057600080fd5b50610353806100206000396000f3fe608060405234801561001057600080fd5b50600436106100885760003560e01c8063808f0a131161005b578063808f0a13146100975780638c60c775146100af578063aff33ce2146100b7578063b82e9366146100bf57600080fd5b8063181032491461008d57806329f4b5ca14610097578063345103fb1461009f57806355884848146100a7575b600080fd5b6100956100c7565b005b6100956100e0565b610095610121565b61009561014f565b61009561020b565b610095610245565b61009561027f565b60405163cd7463b960e01b815260040160405180910390fd5b6040516001600160e01b03196000351681527fdc472cc90b2fcd0da35c5eb19fa07127cfebbb6337c85a337bebc2aab117dbc79060200160405180910390a1565b604051631d6e0cb360e31b815263112233446004820152635566778860248201526044015b60405180910390fd5b60408051600481526024810182526020810180516001600160e01b0316631810324960e01b179052905160009182913091610189916102f7565b6000604051808303816000865af19150503d80600081146101c6576040519150601f19603f3d011682016040523d82523d6000602084013e6101cb565b606091505b50915091507f24ace672d0b56bb74d7b34faba262f0ca4bc2f84bc4494f66422a1c5f810d76b816040516101ff9190610313565b60405180910390a15050565b60408051600481526024810182526020810180516001600160e01b0316635c1749b360e11b179052905160009182913091610189916102f7565b60408051600481526024810182526020810180516001600160e01b031663345103fb60e01b179052905160009182913091610189916102f7565b60405162461bcd60e51b815260206004820152601960248201527f536f6d65206b696e64206f66206572726f7220666630303232000000000000006044820152606401610146565b60005b838110156102e25781810151838201526020016102ca565b838111156102f1576000848401525b50505050565b600082516103098184602087016102c7565b9190910192915050565b60208152600082518060208401526103328160408501602087016102c7565b601f01601f1916919091016040019291505056fea164736f6c634300080d000a",
    "linkReferences": {}
  }
}